S0130000526F746F724472697665722E737265638F
S113000012C02CC02BC02AC029C028C027C026C0BB
S113001025C024C023C039C021C020C01FC01EC0B9
S11300201DC01CC01BC011241FBECFE5D4E0DEBF21
S1130030CDBF10E0A0E6B0E0E6EDF3E002C005902D
S11300400D92A236B107D9F720E0A2E6B0E001C0D4
S11300501D92A93CB207E1F76DD0BBC1D1CF18BA4C
S113006083E087BB8CE385BB8FE384BB12BA80EC4F
S113007081BB80E090E023E6FC01EB59FF4F208335
S1130080019684369105C1F708951F920F920FB619
S11300900F9211242F933F935F936F937F938F93CA
S11300A09F93AF93BF93EF93FF938091630020914D
S11300B0640090E0019664E670E064D130E0821759
S11300C0930781F0E0916300F0E08CB1EB59FF4FAE
S11300D080838091630090E0019664E670E052D1E1
S11300E080936300FF91EF91BF91AF919F918F91A6
S11300F07F916F915F913F912F910F900FBE0F9061
S11301001F90189588E18AB9579A83E880BD10BC7E
S11301108CE089B908958FB5826A8FBD8EB58B61E5
S11301208EBD1DBC1CBC83EC99E097BD86BD1BBC79
S11301301ABC089594DFE6DFEEDFC09A2FE748E3A8
S113014081E0215040408040E1F700C000008CEB8A
S113015090E09BBD8ABD9FEF29E648E19150204085
S11301604040E1F700C0000088B318BA8FE798E375
S113017021E0815090402040E1F700C000007894D5
S11301800EE610E0ECEBF0E0CCEED0E024E630E05C
S113019090916300809164009817D1F3A09164005A
S11301A0B0E0AB59BF4F9C9180916200981709F45D
S11301B0E0C0A0916400B0E0AB59BF4F8C91809334
S11301C0620080916000803321F0813309F497C08C
S11301D0D0C0A0916400B0E0AB59BF4F9C9196335E
S11301E009F45CC018F4943339F0C3C0973309F4AC
S11301F07EC0993351F1BDC085B315BA82B312BA2A
S1130200A99A979AC09A4FE788E391E041508040B9
S11302109040E1F700C00000DBBDCABD4FEF80E7AE
S113022092E0415080409040E1F700C0000088B364
S113023018BAA99A979A4FE788E391E04150804011
S11302409040E1F700C0000094C0C09A4FE788E3F3
S113025091E0415080409040E1F700C00000FBBDB8
S1130260EABD4FEF80E792E0415080409040E1F7D3
S113027000C0000088B318BA4FE788E391E041500A
S113028080409040E1F700C0000085B315BA85B303
S113029015BA82B312BA82B312BA6BC085B315BA57
S11302A082B312BAA89A969AC09A4FE788E391E06B
S11302B0415080409040E1F700C000001BBD0ABDE2
S11302C04FEF80E792E0415080409040E1F700C05A
S11302D0000088B318BAA89A969A4FE788E391E089
S11302E0415080409040E1F700C0000042C090912E
S11302F06000903309F481E3809360003AC0A091D8
S11303006400B0E0AB59BF4F9C91973359F19933D6
S113031081F5C09A4FE788E391E0415080409040D6
S1130320E1F700C00000FBBDEABD4FEF80E792E0BB
S1130330415080409040E1F700C0000088B318BAF3
S11303404FE788E391E0415080409040E1F700C0DE
S1130350000085B315BA85B315BA82B312BA82B355
S113036012BA07C090916000903309F080E3809343
S113037060008091640090E00196B90103D08093FD
S1130380640006CF97FB072E16F4009406D077FD81
S113039008D00BD007FC05D03EF4909581959F4F73
S11303A00895709561957F4F0895AA1BBB1B51E179
S11303B007C0AA1FBB1FA617B70710F0A61BB70BD1
S11303C0881F991F5A95A9F780959095BC01CD0176
S10903D00895F894FFCF2C
S10503D63100F0
S9030000FC
