S0170000426C7565746F6F74684D617368696E2E73726563F7
S113000012C024C023C022C021C020C01FC01EC0F3
S11300101DC01CC01BC02EC019C018C017C016C0FC
S113002015C014C013C011241FBECFE5D4E0DEBF39
S1130030CDBF10E0A0E6B0E0EEECF1E002C0059028
S11300400D92A436B107D9F72DD0BFC0D9CFA09A4D
S1130050A19AA29AA39A85B385BB85B385BB85B3C0
S113006085BB85B385BBA49AA59A85B315BA85B318
S113007015BA08951F920F920FB60F9211248F9301
S11300808CB1809361008F910F900FBE0F901F90E1
S1130090189588E18AB9579A83E880BD10BC83E338
S11300A089B90895D4DFF5DF789490916200809146
S11300B061009817D1F380916000803321F081337F
S11300C009F45BC0F2CF90916100933309F449C005
S11300D018F4923379F14CC09533B1F0983309F0A8
S11300E047C085B315BA85B315BA8FE493EC01976D
S11300F0F1F700C00000A99AAB9A8FE493EC019742
S1130100F1F700C0000034C085B315BA85B315BA41
S113011085B315BA85B315BA85B315BA85B315BABF
S11301209FE728E381E0915020408040E1F700C040
S113013000001EC085B315BAAC9AAD9A85B315BA42
S11301408FE493EC0197F1F700C00000A89AAA9AF3
S1130150AC9AAD9A8FE493EC0197F1F700C00000DC
S113016007C090916000903309F481E380936000AC
S1130170809161008093620098CF909161009333E5
S1130180C1F09533E9F485B315BA85B315BA85B3CF
S113019015BA85B315BA85B315BA85B315BA9FE7F1
S11301A028E381E0915020408040E1F700C0000046
S11301B007C090916000903309F080E38093600061
S11101C0809161008093620070CFF894FFCFAD
S10701CE3163630032
S9030000FC
